:020000040000FA
:0400000080310D2816
:100008007E1480318B1C09280A280B288B107E103F
:10001800090080310F28873102278031FC008731A1
:1000280003278031FD00C401C501C601C701C8010D
:10003800C901CA01CB01CC017E10200080312428DF
:1000480086316B2680318631D02680312000911C84
:100058002E282F282A2821001B082000AC002C0855
:10006800CC060130AC002C08CA070330AC002C08C1
:10007800C9070630AC002C08C80700308631912625
:10008800803170082000AC007108AD000530AD3635
:10009800AC0C890B4B2803302C05C00000302D0513
:1000A800C10040084104031D5A285B287C284708E2
:1000B800BC3E840084300318013E850000084C07CC
:1000C800013E2500910020004C08BC3E840084308D
:1000D8000318013E850000080339AC000330AC3535
:1000E800FF3E031D73282C35AD002D08250093060F
:1000F800200040034104031D8228832893284708D1
:10010800AC000230AC36890B86282C0825009100FB
:10011800200047083039AC002C082500930602302F
:10012800200040064104031D9A289B28C628013058
:10013800863191268031700820004705BC3E840036
:1001480084300318013E85000008AC000230AC364C
:10015800890BAB282C082500910020004708BC3EDD
:10016800840084300318013E850000080339AC0080
:100178000330AC35FF3E031DBD282C35AD002D08DE
:10018800250093060330200040064104031DCD28B6
:10019800CE28F3284708BC3E840083300318013E6C
:1001A80085000008AC000230AC36890BD8282C0832
:1001B8002500910020004708BC3E840083300318C6
:1001C800013E850000080339AC000330AC35FF3E22
:1001D800031DEA282C35AD002D08250093060030B4
:1001E80086319126803170082000AC007108AD007E
:1001F8000730AD36AC0C890BFD282C08C2002D0841
:10020800C30042084304031D0A290B29552901305C
:10021800AC000030AD000030AE000030AF0001305F
:100228008631912680317108850070088400BC30C1
:1002380084078430853D00082000B000B101B20178
:10024800B3013308A3003208A2003108A100300826
:10025800A0005008A7004F08A6004E08A5004D08AA
:10026800A400863137268031200020084407B400D6
:100278002108453DB5002208463DB6002308473D04
:10028800B7003408AC073508AD3D3608AE3D370831
:10029800AF3D2F08C7002E08C6002D08C5002C0842
:1002A800C40042034304031D5A295B29B5290130C0
:1002B800AC000030AD000030AE000030AF004D089B
:1002C800B0004E08B1004F08B2005008B30001302A
:1002D8008631912680317008890A20007729B03547
:1002E800B10DB20DB30D890B73293308A300320881
:1002F800A2003108A1003008A0004A08BC3E8400D2
:1003080084300318013E85000008B400B501B60129
:10031800B7013708A7003608A6003508A500340835
:10032800A400863137268031200020084407B80011
:100338002108453DB9002208463DBA002308473D3B
:10034800BB003808AC073908AD3D3A08AE3D3B085C
:10035800AF3D2F08C7002E08C6002D08C5002C0881
:10036800C400023042064304031DBB29BC29092AE4
:100378004D08AC004E08AD004F08AE005008AF0065
:10038800013086319126803170082000B000710854
:10039800B100B201B30121001B08BC3E84008430C7
:1003A8000318013E850000082000B400B501B6011D
:1003B800B7013708A3003608A2003508A1003408A1
:1003C800A0005008A7004F08A6004E08A5004D0839
:1003D800A40086313726803120002008B007210884
:1003E800B13D2208B23D2308B33D3008AC073108BF
:1003F800AD3D3208AE3D3308AF3D2F08C7002E088B
:10040800C6002D08C5002C08C4000330420643046A
:10041800031D0F2A102A722A4908AC0001308631C0
:10042800912680317008890A20001B2AAC36890B76
:100438001A2A2C08BC3E840084300318013E85002B
:100448000008AD00AE01AF01B0013008A3002F08CD
:10045800A2002E08A1002D08A0005008A7004F08F0
:10046800A6004E08A5004D08A40086313726803125
:1004780020002008B1002108B2002208B300230898
:10048800B40049084407F00045080318450F031055
:10049800F10046080318460F0310F2004708031836
:1004A800470AF3004708F7004608F6004508F50034
:1004B8004408F4008531BC25803170082000B1075C
:1004C8007108B23D7208B33D7308B43D3408C700E3
:1004D8003308C6003208C5003108C400043042069B
:1004E8004304031D782A792AB02A0130AC00003071
:1004F800AD000030AE000030AF004408B000450841
:10050800B1004608B2004708B3004D08B4004E08D1
:10051800B5004F08B6005008B7000630B435B50D21
:10052800B60DB70D890B922A3408B0073508B13DCE
:100538003608B23D3708B33D3008AC073108AD3D49
:100548003208AE3D3308AF3D2F08C7002E08C6005D
:100558002D08C5002C08C400053042064304031DBD
:10056800B62AB72A092B21001B08BC3E8400843018
:100578000318013E850000082000AC00AD01AE0163
:10058800AF012F08A3002E08A2002D08A1002C08F7
:10059800A0005008A7004F08A6004E08A5004D0867
:1005A800A400863137268031200020084D07B0008E
:1005B80021084E3DB10022084F3DB2002308503DAE
:1005C800B3003308BF003208BE003108BD00300850
:1005D800BC003F08A3003E08A2003D08A1003C085B
:1005E800A0000030A7000030A6000830A500B830F1
:1005F800A40086313726803120002308C70022084E
:10060800C6002108C5002008C4000630420643047D
:10061800031D0F2B102B5F2B4408AC004508AD00C1
:100628004608AE004708AF004D08B0004E08B100BC
:100638004F08B2005008B30001308631912680314E
:100648007108850070088400BC3084078330853DBC
:1006580000082000B4000530B436890B302B34086C
:10066800890A3A2BB035B10DB20DB30D890B362B73
:100678003008AC073108AD3D3208AE3D3308AF3D18
:100688002F08C7002E08C6002D08C5002C08C40076
:10069800013086319126803170082000AC00710845
:1006A800AD00AE01AF012C08CD062D08CE062E08F0
:1006B800CF062F08D006073042064304031D652BDA
:1006C800662B27284D08AC002C08F600013086312F
:1006D8009126803170088631ED26803121009B00FB
:1006E8000630F8000030F90001308631912680315B
:1006F8007108F7007008F6008631B1268031770856
:10070800850076088400BC3084078430853D000865
:100718002000AC00AD01AE01AF012F08A3002E08E8
:10072800A2002D08A1002C08A0005008A7004F081F
:10073800A6004E08A5004D08A40086313726803152
:10074800200020084407B0002108453DB1002208D8
:10075800463DB2002308473DB3003308C7003208BE
:10076800C6003108C5003008C400272880310D288C
:10077800D934D334D934D634D034CA34FC34F934E7
:10078800FC34EA34F034F334EA34F334EA34E2344F
:10079800DF34D334C734CD34C534C234D334DC3435
:1007A800D334C734C234C234C734CD34D334DF343D
:1007B800DF34FF34F934F334F334F934F634F334F2
:1007C800F334EA34D634C534C734D634C534D034D7
:1007D800C534BF34C734BF349C346834A834D934E2
:1007E800CD34C734D034DC34D334CD34C534C734F5
:1007F800D034CA34B63479343C3400341134253416
:100808006834A834D934D034C234C734D334DF344C
:10081800FC34F934FC34F934F934F334F934F93468
:10082800FC34EA34EA34F034F334EA34E434F034AF
:10083800F034EA34E734DF34FC34F934F934FC3486
:10084800FC34F934F334F034ED34E734E434F03480
:10085800F334F934F334F934FC34F934F634F0343D
:10086800EA34DF34E234DF34E234E234D634C534F7
:10087800C234C734D034C234D334DC34E234E43440
:10088800E734DC34E734E234DF34D934CD34D334DC
:10089800E434F634F634F634F634ED34E734F3342D
:1008A800EA34D634DF34EA34E734EA34D634DF3491
:1008B800FF34F934F634F634F934F634ED34F034E0
:1008C800F034E734F334F934FC34F934F934F334DC
:1008D800F034F034F634F334F934F934F934FC34C0
:1008E800F934F634F934FC34FC34EA34F334F934AA
:1008F800F934FC34F934F334F934F934F934F6348E
:10090800ED34E234DF34EA34F034F634F034ED34E4
:10091800E734E234E434E234EA34F334F934F334D7
:10092800EA34D634DF34A5346834A834E734ED34F7
:10093800E234B63488344E34143425346834A83458
:10094800E734ED34E234D634D034C234C734CA3450
:10095800D034D934D934C734CA34B63479343C3471
:100968000034113425346834A834EA34EA34E434E1
:1009780083348434873489348C348F349234953476
:1009880098349B349D34A034A334A634A834AB34B3
:10099800AE34B034B334B534B834BA34BD34BF34FB
:1009A800C234C434C634C834CA34CD34CF34D13454
:1009B800D334D434D634D834DA34DB34DD34DF34C9
:1009C800E034E234E334E434E534E734E834E93459
:1009D800EA34EA34EB34EC34ED34ED34EE34EE340E
:1009E800EF34EF34EF34EF34F034F034F034EF34E4
:1009F800EF34EF34EF34EE34EE34ED34ED34EC34E0
:100A0800EC34EB34EA34E934E834E734E634E534FA
:100A1800E334E234E134DF34DE34DC34DB34D9343B
:100A2800D834D634D434D234D034CE34CC34CA3496
:100A3800C834C634C434C234C034BD34BB34B93409
:100A4800B634B434B134AF34AD34AA34A734A53491
:100A5800A234A0349D349A34983495349234903426
:100A68008D348A348734853482347F347C347A34C4
:100A78007734743471346F346C3469346734643463
:100A880061345F345C3459345734543452344F34FD
:100A98004D344A3448344534433440343E343C348D
:100AA8003A3437343534333431342F342D342B340D
:100AB8002934273425342434223420341F341D3477
:100AC8001C341A34193418341634153414341334C5
:100AD8001234113410340F340F340E340D340D34F5
:100AE8000C340C340C340B340B340B340B340B3403
:100AF8000B340B340B340C340C340C340D340E34EE
:100B08000E340F34103410341134123413341534B5
:100B18001634173418341A341B341D341E34203458
:100B2800213423342534273429342B342D342F34DD
:100B380031343334353438343A343C343F34413446
:100B48004434463449344B344E3451345334563497
:100B580059345C345E346134643467346A346C34D8
:100B68006F347234753478347B347E348134823413
:100B7800FA01F71FC02DC12DCE2DF409F509F6098C
:100B8800F709F40A0319F50A0319F60A0319F70A0B
:100B9800FA01FA0AF31FD12DD22DDD2DF009F10942
:100BA800F209F309F00A0319F10A0319F20A031901
:100BB800F30A73087204710470040319E42DE52D17
:100BC8001E2EF901F90AF32D0130F035F10DF20D61
:100BD800F30D890BE92D0130F8007808F907F31FA8
:100BE800F62DF72DE82D73087702031D052E7208E0
:100BF8007602031D052E71087502031D052E700867
:100C08007402031C082E092E112E7008F4027108B4
:100C1800F53B7208F63B7308F73B0130F336F20CEC
:100C2800F10CF00C890B122E0130F902031D1D2E58
:100C38001E2EF72D7A080319222E232E2E2EF409A4
:100C4800F509F609F709F40A0319F50A0319F60A6A
:100C58000319F70A7708F3007608F2007508F1001F
:100C68007408F000080000302000AB000030AA0033
:100C78000030A9000030A800201C432E442E4C2E22
:100C88002408A8072508A93D2608AA3D2708AB3D42
:100C98000130A435A50DA60DA70D890B4D2E0130E9
:100CA800A336A20CA10CA00C890B542E23082204F5
:100CB80021042004031D612E622E402E2B08A30060
:100CC8002A08A2002908A1002808A0000800C030AE
:100CD80021009500F03099001F308C000A30230065
:100CE8008C0020000C1404309C0050309B000F3006
:100CF8002500930000302000D000FF30CF00FF30E7
:100D0800CE00FF30CD0022001D140D3021009D00C3
:100D180020309E0090308B000800F50021009E17BF
:100D28007508F200F20DF20D1D087206833972067D
:100D38009D001D140D30890B9F2E000021009D146D
:100D48009D18A72EA82EA42E1C08F4001B08F3003B
:100D58007408F1007308F0000800FA01FB01761C22
:100D6800B62EB72EBB2E7808FA077908FB3D01305E
:100D7800F835F90D890BBC2E0130F736F60C890BC6
:100D8800C12E76087704031DCA2ECB2EB32E7B08FE
:100D9800F7007A08F600080021009E131D08833921
:100DA8000C389D001D140D30890BD82E0000210031
:100DB8009D149D18E02EE12EDD2E1B08F000700812
:100DC8002000CE0021001C08F00070082000CF0091
:100DD8000800F900F801791CF22EF32EF72E760898
:100DE800F7007708F8070310F60D0310F90C7908D7
:100DF800031DFF2E002FEF2E780808000134013460
:020000040001F9
:04000E00E43FFF3F8D
:00000001FF
